:100000000C943E000C9448000C9448000C9448005A
:100010000C9448000C9448000C9448000C94480040
:100020000C9448000C9448000C9448000C94480030
:100030000C9448000C9448000C9448000C94480020
:100040000C9448000C9448000C9448000C94480010
:100050000C9448000C9448000C9448000C94480000
:100060000C9448000C9448000C9448000C944800F0
:100070000C9448000C9448000C94480011241FBEB6
:10008000CFEFD8E0DEBFCDBF0E9478000C9488008F
:100090000C94000080E281B982B9089583E081B9AF
:1000A0000895882321F081B1806481B9089581B1D8
:1000B0008F7B81B90895882321F082B1806482B951
:1000C000089582B18F7B82B9089581E00E9451002A
:1000D00080E00E945B0086E692EC0197F1F700C099
:1000E000000081E00E945B0080E00E9451000895C2
:1000F0000E944A000E944E000E94650027E080EEA8
:1001000090E1215080409040E1F700C00000F4CF22
:04011000F894FFCF91
:00000001FF
