:100000000C943E000C9448000C9448000C9448005A
:100010000C9448000C9448000C9448000C94480040
:100020000C9448000C9448000C9448000C94480030
:100030000C9448000C9448000C9448000C94480020
:100040000C9448000C9448000C9448000C94480010
:100050000C9448000C9448000C9448000C94480000
:100060000C9448000C9448000C9448000C944800F0
:100070000C9448000C9448000C94480011241FBEB6
:10008000CFEFD8E0DEBFCDBF0E9475000C94830097
:100090000C94000080E281B982B90895882321F090
:1000A00081B1806481B9089581B18F7B81B9089550
:1000B000882321F082B1806482B9089582B18F7B58
:1000C00082B9089581E00E944E0080E00E945800AD
:1000D00086E692EC0197F1F700C0000081E00E94F3
:1000E000580080E00E944E0008950E944A000E943D
:1000F000620027E080EE90E1215080409040E1F7DF
:0A01000000C00000F4CFF894FFCF18
:00000001FF
